S021000066697273745F73746167655F62746C5F65666D333267673132622E73333708
S3150FE100000A4880F308880A4800470000000000000C
S3150FE1001000000000000000000000000000000000EA
S3150FE1002000000000000000002406E10F900400200C
S3150FE100300D06E10F10B5DFF8F011DFF8F02101E061
S3150FE1004021B1491E1369DC07FAD411B96FF0020029
S3150FE1005010BD5060012010601169480702D54FF0BD
S3150FE10060FF3010BD002010BD2DE9F04104461046CA
S3150FE100700B460022002B43D06FF001056FF002080B
S3150FE10080DFF8A411DFF8A471A8B994469C4537D2DD
S3150FE1009054F8040BF8600CF1010C0820386008469F
S3150FE100A001E080B3401E3E69F607FAD458B33869CA
S3150FE100B08007EBD523E0EFF3108072B694460FE09D
S3150FE100C03E6906F01906102E08BF3E603E693607F7
S3150FE100D0F6D554F8046BFE600CF1010C10263E6068
S3150FE100E09C45F3D318B962B601E021B1491E3869CF
S3150FE100F0C307FAD401B942463869810700D52A46C2
S3150FE101001046BDE8F0814246FAE72DE9F84F454C36
S3150FE10110A56BADB205B1012541F67136A6634FEA7E
S3150FE1012092083F4E37683668266846F00106266024
S3150FE101304FF0000906468A469B46002013E0C7F3B7
S3150FE101400A07C7F50067BF08A8EB0900B84238BF31
S3150FE1015007465A4639465046FFF786FF010010D14A
S3150FE10160B9440AEB870AC1450BD206EB8907384634
S3150FE10170FFF760FF0100E2D02168490849002160DD
S3150FE1018003E02268520852002260EDB20DB1002160
S3150FE10190A163BDE8F28F70B5224B23490246986BF6
S3150FE101A080B200B1012041F671349C631C4C256885
S3150FE101B024681E6846F001061E609A6001225A60A5
S3150FE101C05C69620704D500F021F84FF0FF3070BD8E
S3150FE101D002225A605A69D40710D5002918BF491E61
S3150FE101E0F8D10BE00029196804D100F010F86FF08F
S3150FE101F0020070BD00F00BF8002070BD5A6994073C
S3150FE10200F0D500F003F86FF0010070BD19684908E9
S3150FE102104900196008B1002098637047002374E71D
S3150FE1022004300E4008000040809698000C00004014
S3150FE1023010B53B4C41F67131A16322685208520069
S3150FE102402260FFF7A8FF226852080146520022609A
S3150FE102500020A063481E8041C00F10BD38B583084A
S3150FE10260800705D54FF6FF7242EA0142009204E09C
S3150FE1027041F07F4141F47F01009141F67130284C05
S3150FE10280A063042225686D086D0025606946980014
S3150FE10290FFF7C4FF22685208520022600021A163D2
S3150FE102A032BD2DE9F04105468846144605F00101B8
S3150FE102B004F00100014330D16CB3AA0707D538F832
S3150FE102C0021B2846FFF7CAFF38BBAD1CA41E042C40
S3150FE102D01AD3134E41F67130B063A7083168490856
S3150FE102E049003160BF003A4641462846FFF796FF7F
S3150FE102F0316849084900316000227908B26308EB99
S3150FE1030041087D19E41B40B92CB1B8F80010284615
S3150FE10310FFF7A4FF08B9012000E00020BDE8F08156
S3150FE1032008000040F8B5314801680869CD68846A6C
S3150FE10330AC4225D305F5F0418C4221D2641B041959
S3150FE103402B4E2168B1421BD1E1682A4F4FF0FF32A4
S3150FE1035000F056F8B84213D100F040F80ED2026819
S3150FE10360B2420BD18168A268914207D3C1684FF0BF
S3150FE10370FF32284600F044F8B84201D00120F2BD21
S3150FE103800020F2BDF8B5194800680569C468AE6A80
S3150FE10390361BAE19274604E03846FFF749FF07F546
S3150FE103A00067F26810198742F6D329462046FFF710
S3150FE103B078FF90B100F012F80CD202680C498A422C
S3150FE103C008D1C1684FF0FF32204600F019F809490C
S3150FE103D0884201D00020F2BD0120F2BD064807494F
S3150FE103E000680918B1F5F04F704700002800E10FDA
S3150FE103F007B0CD5EE320BBDE2808E10F00F81EF063
S3150FE1040030B50A4B1C6844F080041C600125084B8B
S3150FE104101D609A605D6002E010F8014B9C610A462F
S3150FE10420511E002AF8D1D86930BD00BFB0400E4049
S3150FE1043000C0014080B51A481A4A01681A4811608E
S3150FE104404023C36001684A03FCD4FFF79BFF0028F2
S3150FE10450FBD040F2022000F031F8002002BD10B5CA
S3150FE10460124C1348206000F049F812490A68B2F5B8
S3150FE10470803F0AD040F20921884218BFB0F5007FCC
S3150FE1048003D1FFF74FFF00B110BD0B4820600168A4
S3150FE1049081F3088881F3098840688047FEE7000009
S3150FE104A0880000208C00002004300E4008ED00E0AB
S3150FE104B00000E10F04500E400008E10F4FF000512C
S3150FE104C008804FF20F0048800948016821F4E06186
S3150FE104D041F480610160BFF34F8F064906480A6810
S3150FE104E002F4E06202430A60BFF34F8F00BFFDE7FC
S3150FE104F000500E400CED00E00400FA054FF00051FC
S3150FE105004FF20F024888904201D1088870470028C0
S3150FE1051004BF0888012802D140F2022070474FF448
S3150FE105200070704730B450F8041B79B10268436824
S3150FE1053002440830DC0744BFA9F10104E31852F87D
S3150FE10540045B43F8045B091FF9D1ECE730BC704754
S3150FE1055010B5074979441831064C7C44163404E04A
S3150FE105600A68081D114488470146A142F8D110BD1A
S3150FE105702C0000003C0000004EF68851CEF200013F
S3150FE10580086840F470000860BFF34F8FBFF36F8FB9
S3150FE105904FF00070E1EE100A7047000089FFFFFF90
S3150FE105A01000000094000000800000200000000011
S3150FE105B00449054808600548026842F47002026082
S3150FE105C07047000008ED00E02C00E10F88ED00E038
S3150FE105D00120C046002801D0FFF7BAFFAFF3008034
S3150FE105E00020AFF30080FFF725FF00F000F800F0E1
S3150FE105F001B800000746384600F002F8FBE70000B5
S3150FE106002021090326311820ABBEF9E702488047BE
S3150FE106100248804702480047B105E10F5F04E10F49
S3150FE106204906E10FAD1007B0010000000000090116
S3150FE106300008E10F0080000080F0FA020080000060
S3150FE10640C0EA2101C0EA2101AFF30080FFF794FF71
S3090FE10650FFF7BEFFFD
S7050FE10649BB
